{
  "_format": "hh-sol-artifact-1",
  "contractName": "SecretDotCore",
  "sourceName": "contracts/SecretDotCore.sol",
  "abi": [
    {
      "inputs": [
        {
          "internalType": "uint256",
          "name": "index",
          "type": "uint256"
        }
      ],
      "name": "MessageNotFound",
      "type": "error"
    },
    {
      "inputs": [
        {
          "internalType": "uint256",
          "name": "size",
          "type": "uint256"
        }
      ],
      "name": "MessageTooLarge",
      "type": "error"
    },
    {
      "inputs": [
        {
          "internalType": "address",
          "name": "user",
          "type": "address"
        }
      ],
      "name": "PubKeyNotFound",
      "type": "error"
    },
    {
      "inputs": [
        {
          "internalType": "uint256",
          "name": "nextAllowed",
          "type": "uint256"
        }
      ],
      "name": "RateLimit",
      "type": "error"
    },
    {
      "anonymous": false,
      "inputs": [
        {
          "indexed": true,
          "internalType": "address",
          "name": "sender",
          "type": "address"
        },
        {
          "indexed": true,
          "internalType": "address",
          "name": "recipient",
          "type": "address"
        },
        {
          "indexed": false,
          "internalType": "bytes32",
          "name": "hash",
          "type": "bytes32"
        },
        {
          "indexed": false,
          "internalType": "uint64",
          "name": "expiresAt",
          "type": "uint64"
        }
      ],
      "name": "MessageSent",
      "type": "event"
    },
    {
      "anonymous": false,
      "inputs": [
        {
          "indexed": true,
          "internalType": "address",
          "name": "user",
          "type": "address"
        }
      ],
      "name": "PubKeyDeleted",
      "type": "event"
    },
    {
      "anonymous": false,
      "inputs": [
        {
          "indexed": true,
          "internalType": "address",
          "name": "user",
          "type": "address"
        },
        {
          "indexed": false,
          "internalType": "string",
          "name": "pubKey",
          "type": "string"
        }
      ],
      "name": "PubKeyRegistered",
      "type": "event"
    },
    {
      "inputs": [],
      "name": "DEFAULT_TTL",
      "outputs": [
        {
          "internalType": "uint256",
          "name": "",
          "type": "uint256"
        }
      ],
      "stateMutability": "view",
      "type": "function"
    },
    {
      "inputs": [],
      "name": "MAX_HASH_SIZE",
      "outputs": [
        {
          "internalType": "uint256",
          "name": "",
          "type": "uint256"
        }
      ],
      "stateMutability": "view",
      "type": "function"
    },
    {
      "inputs": [],
      "name": "MESSAGE_COOLDOWN",
      "outputs": [
        {
          "internalType": "uint256",
          "name": "",
          "type": "uint256"
        }
      ],
      "stateMutability": "view",
      "type": "function"
    },
    {
      "inputs": [
        {
          "internalType": "uint256",
          "name": "limit",
          "type": "uint256"
        }
      ],
      "name": "getMyMessages",
      "outputs": [
        {
          "components": [
            {
              "internalType": "bytes32",
              "name": "ipfsHash",
              "type": "bytes32"
            },
            {
              "internalType": "address",
              "name": "sender",
              "type": "address"
            },
            {
              "internalType": "uint64",
              "name": "timestamp",
              "type": "uint64"
            },
            {
              "internalType": "uint64",
              "name": "expiresAt",
              "type": "uint64"
            },
            {
              "internalType": "bool",
              "name": "isDeleted",
              "type": "bool"
            }
          ],
          "internalType": "struct SecretDotCore.Message[]",
          "name": "",
          "type": "tuple[]"
        }
      ],
      "stateMutability": "view",
      "type": "function"
    },
    {
      "inputs": [
        {
          "internalType": "address",
          "name": "user",
          "type": "address"
        }
      ],
      "name": "getUserPubKey",
      "outputs": [
        {
          "internalType": "string",
          "name": "",
          "type": "string"
        }
      ],
      "stateMutability": "view",
      "type": "function"
    },
    {
      "inputs": [
        {
          "internalType": "string",
          "name": "pubkey",
          "type": "string"
        }
      ],
      "name": "registerUserPubKey",
      "outputs": [],
      "stateMutability": "nonpayable",
      "type": "function"
    },
    {
      "inputs": [
        {
          "internalType": "address",
          "name": "recipient",
          "type": "address"
        },
        {
          "internalType": "string",
          "name": "ipfsHash",
          "type": "string"
        },
        {
          "internalType": "uint64",
          "name": "ttl",
          "type": "uint64"
        }
      ],
      "name": "sendMessage",
      "outputs": [],
      "stateMutability": "nonpayable",
      "type": "function"
    }
  ],
  "bytecode": "0x608060405234801561001057600080fd5b50611420806100206000396000f3fe608060405234801561001057600080fd5b506004361061007d5760003560e01c806341b8b5421161005b57806341b8b542146100ec5780637ef93cdf1461011c578063ace446b314610138578063ef62821a146101565761007d565b8063338295de1461008257806336fb8ad0146100a05780633b597013146100d0575b600080fd5b61008a610174565b6040516100979190610a34565b60405180910390f35b6100ba60048036038101906100b59190610a85565b610179565b6040516100c79190610c61565b60405180910390f35b6100ea60048036038101906100e59190610ce8565b6103d7565b005b61010660048036038101906101019190610d61565b6104d2565b6040516101139190610e1e565b60405180910390f35b61013660048036038101906101319190610e6c565b6105ef565b005b6101406109b1565b60405161014d9190610a34565b60405180910390f35b61015e6109b6565b60405161016b9190610a34565b60405180910390f35b606481565b606060008060003373ffffffffffffffffffffffffffffffffffffffff1673ffffffffffffffffffffffffffffffffffffffff16815260200190815260200160002090506000838280549050106101d057836101d6565b81805490505b905060008167ffffffffffffffff8111156101f4576101f3610ee0565b5b60405190808252806020026020018201604052801561022d57816020015b61021a6109bd565b8152602001906001900390816102125790505b5090506000805b84805490508110801561024657508382105b156103ca5784818154811061025e5761025d610f0f565b5b906000526020600020906003020160020160089054906101000a900460ff166103b75784818154811061029457610293610f0f565b5b90600052602060002090600302016040518060a0016040529081600082015481526020016001820160009054906101000a900473ffffffffffffffffffffffffffffffffffffffff1673ffffffffffffffffffffffffffffffffffffffff1673ffffffffffffffffffffffffffffffffffffffff1681526020016001820160149054906101000a900467ffffffffffffffff1667ffffffffffffffff1667ffffffffffffffff1681526020016002820160009054906101000a900467ffffffffffffffff1667ffffffffffffffff1667ffffffffffffffff1681526020016002820160089054906101000a900460ff16151515158152505083838061039890610f6d565b9450815181106103ab576103aa610f0f565b5b60200260200101819052505b80806103c290610f6d565b915050610234565b5081945050505050919050565b8181600460003373ffffffffffffffffffffffffffffffffffffffff1673ffffffffffffffffffffffffffffffffffffffff16815260200190815260200160002091826104259291906111cc565b506000600260003373ffffffffffffffffffffffffffffffffffffffff1673ffffffffffffffffffffffffffffffffffffffff16815260200190815260200160002060006101000a81548160ff0219169083151502179055503373ffffffffffffffffffffffffffffffffffffffff167f17680f75b3bd6358c599e13674967a6d56ad9c0f29ab0df4850716fafde58cc083836040516104c69291906112d8565b60405180910390a25050565b60606000600460008473ffffffffffffffffffffffffffffffffffffffff1673ffffffffffffffffffffffffffffffffffffffff168152602001908152602001600020805461052090610fef565b80601f016020809104026020016040519081016040528092919081815260200182805461054c90610fef565b80156105995780601f1061056e57610100808354040283529160200191610599565b820191906000526020600020905b81548152906001019060200180831161057c57829003601f168201915b5050505050905060008151036105e657826040517f203497940000000000000000000000000000000000000000000000000000000081526004016105dd919061130b565b60405180910390fd5b80915050919050565b603c600160003373ffffffffffffffffffffffffffffffffffffffff1673ffffffffffffffffffffffffffffffffffffffff1681526020019081526020016000205461063b9190611326565b4210156106ca57603c600160003373ffffffffffffffffffffffffffffffffffffffff1673ffffffffffffffffffffffffffffffffffffffff1681526020019081526020016000205461068e9190611326565b6040517fdbfe845c0000000000000000000000000000000000000000000000000000000081526004016106c19190610a34565b60405180910390fd5b606483839050111561071657828290506040517fe649cb5400000000000000000000000000000000000000000000000000000000815260040161070d9190610a34565b60405180910390fd5b6000838360405161072892919061138a565b604051809103902090506000808367ffffffffffffffff1614610760578267ffffffffffffffff164261075b9190611326565b610770565b62278d004261076f9190611326565b5b90506000808773ffffffffffffffffffffffffffffffffffffffff1673ffffffffffffffffffffffffffffffffffffffff1681526020019081526020016000206040518060a001604052808481526020013373ffffffffffffffffffffffffffffffffffffffff1681526020014267ffffffffffffffff1681526020018367ffffffffffffffff1681526020016000151581525090806001815401808255809150506001900390600052602060002090600302016000909190919091506000820151816000015560208201518160010160006101000a81548173ffffffffffffffffffffffffffffffffffffffff021916908373ffffffffffffffffffffffffffffffffffffffff16021790555060408201518160010160146101000a81548167ffffffffffffffff021916908367ffffffffffffffff16021790555060608201518160020160006101000a81548167ffffffffffffffff021916908367ffffffffffffffff16021790555060808201518160020160086101000a81548160ff021916908315150217905550505042600160003373ffffffffffffffffffffffffffffffffffffffff1673ffffffffffffffffffffffffffffffffffffffff168152602001908152602001600020819055508573ffffffffffffffffffffffffffffffffffffffff163373ffffffffffffffffffffffffffffffffffffffff167f4ac8868417cb696399fc86eefa527d268b76b4bbe883b6e1a49c24f6a818415d84846040516109a19291906113c1565b60405180910390a3505050505050565b603c81565b62278d0081565b6040518060a0016040528060008019168152602001600073ffffffffffffffffffffffffffffffffffffffff168152602001600067ffffffffffffffff168152602001600067ffffffffffffffff1681526020016000151581525090565b6000819050919050565b610a2e81610a1b565b82525050565b6000602082019050610a496000830184610a25565b92915050565b600080fd5b600080fd5b610a6281610a1b565b8114610a6d57600080fd5b50565b600081359050610a7f81610a59565b92915050565b600060208284031215610a9b57610a9a610a4f565b5b6000610aa984828501610a70565b91505092915050565b600081519050919050565b600082825260208201905092915050565b6000819050602082019050919050565b6000819050919050565b610af181610ade565b82525050565b600073ffffffffffffffffffffffffffffffffffffffff82169050919050565b6000610b2282610af7565b9050919050565b610b3281610b17565b82525050565b600067ffffffffffffffff82169050919050565b610b5581610b38565b82525050565b60008115159050919050565b610b7081610b5b565b82525050565b60a082016000820151610b8c6000850182610ae8565b506020820151610b9f6020850182610b29565b506040820151610bb26040850182610b4c565b506060820151610bc56060850182610b4c565b506080820151610bd86080850182610b67565b50505050565b6000610bea8383610b76565b60a08301905092915050565b6000602082019050919050565b6000610c0e82610ab2565b610c188185610abd565b9350610c2383610ace565b8060005b83811015610c54578151610c3b8882610bde565b9750610c4683610bf6565b925050600181019050610c27565b5085935050505092915050565b60006020820190508181036000830152610c7b8184610c03565b905092915050565b600080fd5b600080fd5b600080fd5b60008083601f840112610ca857610ca7610c83565b5b8235905067ffffffffffffffff811115610cc557610cc4610c88565b5b602083019150836001820283011115610ce157610ce0610c8d565b5b9250929050565b60008060208385031215610cff57610cfe610a4f565b5b600083013567ffffffffffffffff811115610d1d57610d1c610a54565b5b610d2985828601610c92565b92509250509250929050565b610d3e81610b17565b8114610d4957600080fd5b50565b600081359050610d5b81610d35565b92915050565b600060208284031215610d7757610d76610a4f565b5b6000610d8584828501610d4c565b91505092915050565b600081519050919050565b600082825260208201905092915050565b60005b83811015610dc8578082015181840152602081019050610dad565b60008484015250505050565b6000601f19601f8301169050919050565b6000610df082610d8e565b610dfa8185610d99565b9350610e0a818560208601610daa565b610e1381610dd4565b840191505092915050565b60006020820190508181036000830152610e388184610de5565b905092915050565b610e4981610b38565b8114610e5457600080fd5b50565b600081359050610e6681610e40565b92915050565b60008060008060608587031215610e8657610e85610a4f565b5b6000610e9487828801610d4c565b945050602085013567ffffffffffffffff811115610eb557610eb4610a54565b5b610ec187828801610c92565b93509350506040610ed487828801610e57565b91505092959194509250565b7f4e487b7100000000000000000000000000000000000000000000000000000000600052604160045260246000fd5b7f4e487b7100000000000000000000000000000000000000000000000000000000600052603260045260246000fd5b7f4e487b7100000000000000000000000000000000000000000000000000000000600052601160045260246000fd5b6000610f7882610a1b565b91507fffffffffffffffffffffffffffffffffffffffffffffffffffffffffffffffff8203610faa57610fa9610f3e565b5b600182019050919050565b600082905092915050565b7f4e487b7100000000000000000000000000000000000000000000000000000000600052602260045260246000fd5b6000600282049050600182168061100757607f821691505b60208210810361101a57611019610fc0565b5b50919050565b60008190508160005260206000209050919050565b60006020601f8301049050919050565b600082821b905092915050565b6000600883026110827fffffffffffffffffffffffffffffffffffffffffffffffffffffffffffffffff82611045565b61108c8683611045565b95508019841693508086168417925050509392505050565b6000819050919050565b60006110c96110c46110bf84610a1b565b6110a4565b610a1b565b9050919050565b6000819050919050565b6110e3836110ae565b6110f76110ef826110d0565b848454611052565b825550505050565b600090565b61110c6110ff565b6111178184846110da565b505050565b5b8181101561113b57611130600082611104565b60018101905061111d565b5050565b601f8211156111805761115181611020565b61115a84611035565b81016020851015611169578190505b61117d61117585611035565b83018261111c565b50505b505050565b600082821c905092915050565b60006111a360001984600802611185565b1980831691505092915050565b60006111bc8383611192565b9150826002028217905092915050565b6111d68383610fb5565b67ffffffffffffffff8111156111ef576111ee610ee0565b5b6111f98254610fef565b61120482828561113f565b6000601f8311600181146112335760008415611221578287013590505b61122b85826111b0565b865550611293565b601f19841661124186611020565b60005b8281101561126957848901358255600182019150602085019450602081019050611244565b868310156112865784890135611282601f891682611192565b8355505b6001600288020188555050505b50505050505050565b82818337600083830152505050565b60006112b78385610d99565b93506112c483858461129c565b6112cd83610dd4565b840190509392505050565b600060208201905081810360008301526112f38184866112ab565b90509392505050565b61130581610b17565b82525050565b600060208201905061132060008301846112fc565b92915050565b600061133182610a1b565b915061133c83610a1b565b925082820190508082111561135457611353610f3e565b5b92915050565b600081905092915050565b6000611371838561135a565b935061137e83858461129c565b82840190509392505050565b6000611397828486611365565b91508190509392505050565b6113ac81610ade565b82525050565b6113bb81610b38565b82525050565b60006040820190506113d660008301856113a3565b6113e360208301846113b2565b939250505056fea264697066735822122031aa01122912bc82e2d328d719f2709de8ed0893acf59c760cd8315cb9d8086564736f6c63430008140033",
  "linkReferences": {},
  "deployedLinkReferences": {}
}