{
  "_format": "hh-sol-artifact-1",
  "contractName": "SecretDot",
  "sourceName": "contracts/SecretDot.sol",
  "abi": [
    {
      "inputs": [],
      "stateMutability": "nonpayable",
      "type": "constructor"
    },
    {
      "inputs": [
        {
          "internalType": "address",
          "name": "u",
          "type": "address"
        }
      ],
      "name": "NoKey",
      "type": "error"
    },
    {
      "anonymous": false,
      "inputs": [
        {
          "indexed": true,
          "internalType": "address",
          "name": "u",
          "type": "address"
        },
        {
          "indexed": false,
          "internalType": "string",
          "name": "k",
          "type": "string"
        }
      ],
      "name": "KeySet",
      "type": "event"
    },
    {
      "anonymous": false,
      "inputs": [
        {
          "indexed": true,
          "internalType": "address",
          "name": "f",
          "type": "address"
        },
        {
          "indexed": true,
          "internalType": "address",
          "name": "t",
          "type": "address"
        },
        {
          "indexed": false,
          "internalType": "string",
          "name": "h",
          "type": "string"
        }
      ],
      "name": "MsgSent",
      "type": "event"
    },
    {
      "inputs": [],
      "name": "delKey",
      "outputs": [],
      "stateMutability": "nonpayable",
      "type": "function"
    },
    {
      "inputs": [
        {
          "internalType": "address",
          "name": "u",
          "type": "address"
        }
      ],
      "name": "hasKey",
      "outputs": [
        {
          "internalType": "bool",
          "name": "",
          "type": "bool"
        }
      ],
      "stateMutability": "view",
      "type": "function"
    },
    {
      "inputs": [],
      "name": "inbox",
      "outputs": [
        {
          "components": [
            {
              "internalType": "string",
              "name": "ipfs",
              "type": "string"
            },
            {
              "internalType": "address",
              "name": "from",
              "type": "address"
            },
            {
              "internalType": "uint256",
              "name": "t",
              "type": "uint256"
            }
          ],
          "internalType": "struct SecretDot.Msg[]",
          "name": "",
          "type": "tuple[]"
        }
      ],
      "stateMutability": "view",
      "type": "function"
    },
    {
      "inputs": [
        {
          "internalType": "address",
          "name": "u",
          "type": "address"
        }
      ],
      "name": "keyOf",
      "outputs": [
        {
          "internalType": "string",
          "name": "",
          "type": "string"
        }
      ],
      "stateMutability": "view",
      "type": "function"
    },
    {
      "inputs": [],
      "name": "myKey",
      "outputs": [
        {
          "internalType": "string",
          "name": "",
          "type": "string"
        }
      ],
      "stateMutability": "view",
      "type": "function"
    },
    {
      "inputs": [],
      "name": "owner",
      "outputs": [
        {
          "internalType": "address",
          "name": "",
          "type": "address"
        }
      ],
      "stateMutability": "view",
      "type": "function"
    },
    {
      "inputs": [
        {
          "internalType": "address",
          "name": "to",
          "type": "address"
        },
        {
          "internalType": "string",
          "name": "h",
          "type": "string"
        }
      ],
      "name": "send",
      "outputs": [],
      "stateMutability": "nonpayable",
      "type": "function"
    },
    {
      "inputs": [
        {
          "internalType": "string",
          "name": "v",
          "type": "string"
        }
      ],
      "name": "setKey",
      "outputs": [],
      "stateMutability": "nonpayable",
      "type": "function"
    }
  ],
  "bytecode": "0x608060405234801561001057600080fd5b50336000806101000a81548173ffffffffffffffffffffffffffffffffffffffff021916908373ffffffffffffffffffffffffffffffffffffffff1602179055506112e6806100606000396000f3fe608060405234801561001057600080fd5b50600436106100885760003560e01c8063af42d1061161005b578063af42d106146100ef578063d36afad51461010b578063fa073d761461013b578063fb0e722b1461016b57610088565b8063572f10971461008d5780638da5cb5b146100ab57806399142b5f146100c95780639f352689146100e5575b600080fd5b610095610189565b6040516100a29190610a99565b60405180910390f35b6100b36102a4565b6040516100c09190610afc565b60405180910390f35b6100e360048036038101906100de9190610bb2565b6102c8565b005b6100ed61051a565b005b61010960048036038101906101049190610c12565b6105f7565b005b61012560048036038101906101209190610c5f565b6106aa565b6040516101329190610ca7565b60405180910390f35b61015560048036038101906101509190610c5f565b610701565b6040516101629190610a99565b60405180910390f35b61017361081e565b6040516101809190610e46565b60405180910390f35b60606000600260003373ffffffffffffffffffffffffffffffffffffffff1673ffffffffffffffffffffffffffffffffffffffff16815260200190815260200160002080546101d790610e97565b80601f016020809104026020016040519081016040528092919081815260200182805461020390610e97565b80156102505780601f1061022557610100808354040283529160200191610250565b820191906000526020600020905b81548152906001019060200180831161023357829003601f168201915b50505050509050600081510361029d57336040517fe2a3bd4e0000000000000000000000000000000000000000000000000000000081526004016102949190610afc565b60405180910390fd5b8091505090565b60008054906101000a900473ffffffffffffffffffffffffffffffffffffffff1681565b6000600260008573ffffffffffffffffffffffffffffffffffffffff1673ffffffffffffffffffffffffffffffffffffffff168152602001908152602001600020805461031490610e97565b90500361035857826040517fe2a3bd4e00000000000000000000000000000000000000000000000000000000815260040161034f9190610afc565b60405180910390fd5b6000828290500361036857600080fd5b600160008473ffffffffffffffffffffffffffffffffffffffff1673ffffffffffffffffffffffffffffffffffffffff168152602001908152602001600020604051806060016040528084848080601f016020809104026020016040519081016040528093929190818152602001838380828437600081840152601f19601f8201169050808301925050505050505081526020013373ffffffffffffffffffffffffffffffffffffffff168152602001428152509080600181540180825580915050600190039060005260206000209060030201600090919091909150600082015181600001908161045a91906110a3565b5060208201518160010160006101000a81548173ffffffffffffffffffffffffffffffffffffffff021916908373ffffffffffffffffffffffffffffffffffffffff1602179055506040820151816002015550508273ffffffffffffffffffffffffffffffffffffffff163373ffffffffffffffffffffffffffffffffffffffff167fcbe9eed421022992b64d9f98d820bda2c4449d44a2687eed8fd7d0dd9a996ebd848460405161050d9291906111b1565b60405180910390a3505050565b6000600260003373ffffffffffffffffffffffffffffffffffffffff1673ffffffffffffffffffffffffffffffffffffffff168152602001908152602001600020805461056690610e97565b9050036105aa57336040517fe2a3bd4e0000000000000000000000000000000000000000000000000000000081526004016105a19190610afc565b60405180910390fd5b600260003373ffffffffffffffffffffffffffffffffffffffff1673ffffffffffffffffffffffffffffffffffffffff16815260200190815260200160002060006105f591906109ac565b565b6000828290500361060757600080fd5b8181600260003373ffffffffffffffffffffffffffffffffffffffff1673ffffffffffffffffffffffffffffffffffffffff16815260200190815260200160002091826106559291906111e0565b503373ffffffffffffffffffffffffffffffffffffffff167fa2b788dbd95a3f31cb9b5b230924d221d7f6c328da4fba982f4fab2d41b6fc46838360405161069e9291906111b1565b60405180910390a25050565b600080600260008473ffffffffffffffffffffffffffffffffffffffff1673ffffffffffffffffffffffffffffffffffffffff16815260200190815260200160002080546106f790610e97565b9050119050919050565b60606000600260008473ffffffffffffffffffffffffffffffffffffffff1673ffffffffffffffffffffffffffffffffffffffff168152602001908152602001600020805461074f90610e97565b80601f016020809104026020016040519081016040528092919081815260200182805461077b90610e97565b80156107c85780601f1061079d576101008083540402835291602001916107c8565b820191906000526020600020905b8154815290600101906020018083116107ab57829003601f168201915b50505050509050600081510361081557826040517fe2a3bd4e00000000000000000000000000000000000000000000000000000000815260040161080c9190610afc565b60405180910390fd5b80915050919050565b6060600160003373ffffffffffffffffffffffffffffffffffffffff1673ffffffffffffffffffffffffffffffffffffffff168152602001908152602001600020805480602002602001604051908101604052809291908181526020016000905b828210156109a357838290600052602060002090600302016040518060600160405290816000820180546108b290610e97565b80601f01602080910402602001604051908101604052809291908181526020018280546108de90610e97565b801561092b5780601f106109005761010080835404028352916020019161092b565b820191906000526020600020905b81548152906001019060200180831161090e57829003601f168201915b505050505081526020016001820160009054906101000a900473ffffffffffffffffffffffffffffffffffffffff1673ffffffffffffffffffffffffffffffffffffffff1673ffffffffffffffffffffffffffffffffffffffff1681526020016002820154815250508152602001906001019061087f565b50505050905090565b5080546109b890610e97565b6000825580601f106109ca57506109e9565b601f0160209004906000526020600020908101906109e891906109ec565b5b50565b5b80821115610a055760008160009055506001016109ed565b5090565b600081519050919050565b600082825260208201905092915050565b60005b83811015610a43578082015181840152602081019050610a28565b60008484015250505050565b6000601f19601f8301169050919050565b6000610a6b82610a09565b610a758185610a14565b9350610a85818560208601610a25565b610a8e81610a4f565b840191505092915050565b60006020820190508181036000830152610ab38184610a60565b905092915050565b600073ffffffffffffffffffffffffffffffffffffffff82169050919050565b6000610ae682610abb565b9050919050565b610af681610adb565b82525050565b6000602082019050610b116000830184610aed565b92915050565b600080fd5b600080fd5b610b2a81610adb565b8114610b3557600080fd5b50565b600081359050610b4781610b21565b92915050565b600080fd5b600080fd5b600080fd5b60008083601f840112610b7257610b71610b4d565b5b8235905067ffffffffffffffff811115610b8f57610b8e610b52565b5b602083019150836001820283011115610bab57610baa610b57565b5b9250929050565b600080600060408486031215610bcb57610bca610b17565b5b6000610bd986828701610b38565b935050602084013567ffffffffffffffff811115610bfa57610bf9610b1c565b5b610c0686828701610b5c565b92509250509250925092565b60008060208385031215610c2957610c28610b17565b5b600083013567ffffffffffffffff811115610c4757610c46610b1c565b5b610c5385828601610b5c565b92509250509250929050565b600060208284031215610c7557610c74610b17565b5b6000610c8384828501610b38565b91505092915050565b60008115159050919050565b610ca181610c8c565b82525050565b6000602082019050610cbc6000830184610c98565b92915050565b600081519050919050565b600082825260208201905092915050565b6000819050602082019050919050565b600082825260208201905092915050565b6000610d0a82610a09565b610d148185610cee565b9350610d24818560208601610a25565b610d2d81610a4f565b840191505092915050565b610d4181610adb565b82525050565b6000819050919050565b610d5a81610d47565b82525050565b60006060830160008301518482036000860152610d7d8282610cff565b9150506020830151610d926020860182610d38565b506040830151610da56040860182610d51565b508091505092915050565b6000610dbc8383610d60565b905092915050565b6000602082019050919050565b6000610ddc82610cc2565b610de68185610ccd565b935083602082028501610df885610cde565b8060005b85811015610e345784840389528151610e158582610db0565b9450610e2083610dc4565b925060208a01995050600181019050610dfc565b50829750879550505050505092915050565b60006020820190508181036000830152610e608184610dd1565b905092915050565b7f4e487b7100000000000000000000000000000000000000000000000000000000600052602260045260246000fd5b60006002820490506001821680610eaf57607f821691505b602082108103610ec257610ec1610e68565b5b50919050565b7f4e487b7100000000000000000000000000000000000000000000000000000000600052604160045260246000fd5b60008190508160005260206000209050919050565b60006020601f8301049050919050565b600082821b905092915050565b600060088302610f597fffffffffffffffffffffffffffffffffffffffffffffffffffffffffffffffff82610f1c565b610f638683610f1c565b95508019841693508086168417925050509392505050565b6000819050919050565b6000610fa0610f9b610f9684610d47565b610f7b565b610d47565b9050919050565b6000819050919050565b610fba83610f85565b610fce610fc682610fa7565b848454610f29565b825550505050565b600090565b610fe3610fd6565b610fee818484610fb1565b505050565b5b8181101561101257611007600082610fdb565b600181019050610ff4565b5050565b601f8211156110575761102881610ef7565b61103184610f0c565b81016020851015611040578190505b61105461104c85610f0c565b830182610ff3565b50505b505050565b600082821c905092915050565b600061107a6000198460080261105c565b1980831691505092915050565b60006110938383611069565b9150826002028217905092915050565b6110ac82610a09565b67ffffffffffffffff8111156110c5576110c4610ec8565b5b6110cf8254610e97565b6110da828285611016565b600060209050601f83116001811461110d57600084156110fb578287015190505b6111058582611087565b86555061116d565b601f19841661111b86610ef7565b60005b828110156111435784890151825560018201915060208501945060208101905061111e565b86831015611160578489015161115c601f891682611069565b8355505b6001600288020188555050505b505050505050565b82818337600083830152505050565b60006111908385610a14565b935061119d838584611175565b6111a683610a4f565b840190509392505050565b600060208201905081810360008301526111cc818486611184565b90509392505050565b600082905092915050565b6111ea83836111d5565b67ffffffffffffffff81111561120357611202610ec8565b5b61120d8254610e97565b611218828285611016565b6000601f8311600181146112475760008415611235578287013590505b61123f8582611087565b8655506112a7565b601f19841661125586610ef7565b60005b8281101561127d57848901358255600182019150602085019450602081019050611258565b8683101561129a5784890135611296601f891682611069565b8355505b6001600288020188555050505b5050505050505056fea2646970667358221220b0e89721f81b8c29b1e7b5a7fb5ae698286241db33a7e1398a23b1a1c756e82364736f6c63430008140033",
  "linkReferences": {},
  "deployedLinkReferences": {}
}