{
  "_format": "hh-sol-artifact-1",
  "contractName": "SecretDot",
  "sourceName": "contracts/SecretDot.sol",
  "abi": [
    {
      "inputs": [],
      "stateMutability": "nonpayable",
      "type": "constructor"
    },
    {
      "inputs": [],
      "name": "EnforcedPause",
      "type": "error"
    },
    {
      "inputs": [],
      "name": "ExpectedPause",
      "type": "error"
    },
    {
      "inputs": [
        {
          "internalType": "string",
          "name": "hash",
          "type": "string"
        }
      ],
      "name": "InvalidIPFSHashError",
      "type": "error"
    },
    {
      "inputs": [
        {
          "internalType": "string",
          "name": "pubkey",
          "type": "string"
        }
      ],
      "name": "InvalidPubKeyError",
      "type": "error"
    },
    {
      "inputs": [
        {
          "internalType": "uint256",
          "name": "messageIndex",
          "type": "uint256"
        }
      ],
      "name": "MessageExpiredError",
      "type": "error"
    },
    {
      "inputs": [
        {
          "internalType": "address",
          "name": "user",
          "type": "address"
        },
        {
          "internalType": "uint256",
          "name": "messageIndex",
          "type": "uint256"
        }
      ],
      "name": "MessageNotFoundError",
      "type": "error"
    },
    {
      "inputs": [
        {
          "internalType": "address",
          "name": "recipient",
          "type": "address"
        }
      ],
      "name": "MessageReceivingDisabledError",
      "type": "error"
    },
    {
      "inputs": [
        {
          "internalType": "uint256",
          "name": "size",
          "type": "uint256"
        },
        {
          "internalType": "uint256",
          "name": "maxSize",
          "type": "uint256"
        }
      ],
      "name": "MessageTooLargeError",
      "type": "error"
    },
    {
      "inputs": [
        {
          "internalType": "address",
          "name": "owner",
          "type": "address"
        }
      ],
      "name": "OwnableInvalidOwner",
      "type": "error"
    },
    {
      "inputs": [
        {
          "internalType": "address",
          "name": "account",
          "type": "address"
        }
      ],
      "name": "OwnableUnauthorizedAccount",
      "type": "error"
    },
    {
      "inputs": [
        {
          "internalType": "address",
          "name": "user",
          "type": "address"
        }
      ],
      "name": "PubKeyNotFoundError",
      "type": "error"
    },
    {
      "inputs": [
        {
          "internalType": "address",
          "name": "sender",
          "type": "address"
        },
        {
          "internalType": "uint256",
          "name": "cooldownEnd",
          "type": "uint256"
        }
      ],
      "name": "RateLimitExceededError",
      "type": "error"
    },
    {
      "inputs": [],
      "name": "ReentrancyGuardReentrantCall",
      "type": "error"
    },
    {
      "inputs": [
        {
          "internalType": "address",
          "name": "sender",
          "type": "address"
        },
        {
          "internalType": "address",
          "name": "recipient",
          "type": "address"
        }
      ],
      "name": "SenderBlockedError",
      "type": "error"
    },
    {
      "inputs": [
        {
          "internalType": "address",
          "name": "caller",
          "type": "address"
        },
        {
          "internalType": "address",
          "name": "target",
          "type": "address"
        }
      ],
      "name": "UnauthorizedAccessError",
      "type": "error"
    },
    {
      "anonymous": false,
      "inputs": [
        {
          "indexed": true,
          "internalType": "address",
          "name": "user",
          "type": "address"
        },
        {
          "indexed": true,
          "internalType": "uint256",
          "name": "messageIndex",
          "type": "uint256"
        }
      ],
      "name": "MessageDeleted",
      "type": "event"
    },
    {
      "anonymous": false,
      "inputs": [
        {
          "indexed": true,
          "internalType": "address",
          "name": "user",
          "type": "address"
        },
        {
          "indexed": true,
          "internalType": "uint256",
          "name": "messageIndex",
          "type": "uint256"
        }
      ],
      "name": "MessageRead",
      "type": "event"
    },
    {
      "anonymous": false,
      "inputs": [
        {
          "indexed": true,
          "internalType": "address",
          "name": "user",
          "type": "address"
        },
        {
          "indexed": false,
          "internalType": "bool",
          "name": "isEnabled",
          "type": "bool"
        }
      ],
      "name": "MessageReceivingToggled",
      "type": "event"
    },
    {
      "anonymous": false,
      "inputs": [
        {
          "indexed": true,
          "internalType": "address",
          "name": "sender",
          "type": "address"
        },
        {
          "indexed": true,
          "internalType": "address",
          "name": "recipient",
          "type": "address"
        },
        {
          "indexed": false,
          "internalType": "bytes32",
          "name": "ipfsHash",
          "type": "bytes32"
        },
        {
          "indexed": false,
          "internalType": "uint64",
          "name": "expiresAt",
          "type": "uint64"
        }
      ],
      "name": "MessageSent",
      "type": "event"
    },
    {
      "anonymous": false,
      "inputs": [
        {
          "indexed": true,
          "internalType": "address",
          "name": "previousOwner",
          "type": "address"
        },
        {
          "indexed": true,
          "internalType": "address",
          "name": "newOwner",
          "type": "address"
        }
      ],
      "name": "OwnershipTransferred",
      "type": "event"
    },
    {
      "anonymous": false,
      "inputs": [
        {
          "indexed": false,
          "internalType": "address",
          "name": "account",
          "type": "address"
        }
      ],
      "name": "Paused",
      "type": "event"
    },
    {
      "anonymous": false,
      "inputs": [
        {
          "indexed": true,
          "internalType": "address",
          "name": "user",
          "type": "address"
        },
        {
          "indexed": true,
          "internalType": "address",
          "name": "deletedBy",
          "type": "address"
        }
      ],
      "name": "PubKeyDeleted",
      "type": "event"
    },
    {
      "anonymous": false,
      "inputs": [
        {
          "indexed": true,
          "internalType": "address",
          "name": "user",
          "type": "address"
        },
        {
          "indexed": false,
          "internalType": "string",
          "name": "pubKey",
          "type": "string"
        }
      ],
      "name": "PubKeyRegistered",
      "type": "event"
    },
    {
      "anonymous": false,
      "inputs": [
        {
          "indexed": false,
          "internalType": "address",
          "name": "account",
          "type": "address"
        }
      ],
      "name": "Unpaused",
      "type": "event"
    },
    {
      "inputs": [],
      "name": "DEFAULT_MESSAGE_TTL",
      "outputs": [
        {
          "internalType": "uint256",
          "name": "",
          "type": "uint256"
        }
      ],
      "stateMutability": "view",
      "type": "function"
    },
    {
      "inputs": [
        {
          "internalType": "uint256",
          "name": "messageIndex",
          "type": "uint256"
        }
      ],
      "name": "DeleteMessage",
      "outputs": [],
      "stateMutability": "nonpayable",
      "type": "function"
    },
    {
      "inputs": [],
      "name": "DeleteUserPubKey",
      "outputs": [],
      "stateMutability": "nonpayable",
      "type": "function"
    },
    {
      "inputs": [
        {
          "internalType": "address",
          "name": "userAddress",
          "type": "address"
        }
      ],
      "name": "DeleteUserPubKeyAdmin",
      "outputs": [],
      "stateMutability": "nonpayable",
      "type": "function"
    },
    {
      "inputs": [],
      "name": "GetMyMessages",
      "outputs": [
        {
          "components": [
            {
              "internalType": "bytes32",
              "name": "ipfsHash",
              "type": "bytes32"
            },
            {
              "internalType": "address",
              "name": "sender",
              "type": "address"
            },
            {
              "internalType": "uint64",
              "name": "timestamp",
              "type": "uint64"
            },
            {
              "internalType": "uint64",
              "name": "expiresAt",
              "type": "uint64"
            },
            {
              "internalType": "uint8",
              "name": "status",
              "type": "uint8"
            },
            {
              "internalType": "uint8",
              "name": "category",
              "type": "uint8"
            },
            {
              "internalType": "bool",
              "name": "isDeleted",
              "type": "bool"
            }
          ],
          "internalType": "struct ISecretDot.Message[]",
          "name": "",
          "type": "tuple[]"
        }
      ],
      "stateMutability": "view",
      "type": "function"
    },
    {
      "inputs": [],
      "name": "GetMyPubKey",
      "outputs": [
        {
          "internalType": "string",
          "name": "",
          "type": "string"
        }
      ],
      "stateMutability": "view",
      "type": "function"
    },
    {
      "inputs": [
        {
          "internalType": "address",
          "name": "userAddress",
          "type": "address"
        }
      ],
      "name": "GetUserPubKey",
      "outputs": [
        {
          "internalType": "string",
          "name": "",
          "type": "string"
        }
      ],
      "stateMutability": "view",
      "type": "function"
    },
    {
      "inputs": [
        {
          "internalType": "address",
          "name": "userAddress",
          "type": "address"
        }
      ],
      "name": "HasRegisteredPubKey",
      "outputs": [
        {
          "internalType": "bool",
          "name": "",
          "type": "bool"
        }
      ],
      "stateMutability": "view",
      "type": "function"
    },
    {
      "inputs": [],
      "name": "MAX_MESSAGE_SIZE",
      "outputs": [
        {
          "internalType": "uint256",
          "name": "",
          "type": "uint256"
        }
      ],
      "stateMutability": "view",
      "type": "function"
    },
    {
      "inputs": [],
      "name": "MESSAGE_COOLDOWN",
      "outputs": [
        {
          "internalType": "uint256",
          "name": "",
          "type": "uint256"
        }
      ],
      "stateMutability": "view",
      "type": "function"
    },
    {
      "inputs": [
        {
          "internalType": "uint256",
          "name": "messageIndex",
          "type": "uint256"
        }
      ],
      "name": "MarkMessageAsRead",
      "outputs": [],
      "stateMutability": "nonpayable",
      "type": "function"
    },
    {
      "inputs": [
        {
          "internalType": "string",
          "name": "pubkey",
          "type": "string"
        }
      ],
      "name": "RegisterUserPubKey",
      "outputs": [],
      "stateMutability": "nonpayable",
      "type": "function"
    },
    {
      "inputs": [
        {
          "internalType": "address",
          "name": "recipient",
          "type": "address"
        },
        {
          "internalType": "string",
          "name": "ipfsHash",
          "type": "string"
        }
      ],
      "name": "SendMessage",
      "outputs": [],
      "stateMutability": "nonpayable",
      "type": "function"
    },
    {
      "inputs": [
        {
          "internalType": "uint256",
          "name": "limit",
          "type": "uint256"
        }
      ],
      "name": "cleanupExpiredMessages",
      "outputs": [
        {
          "internalType": "uint256",
          "name": "count",
          "type": "uint256"
        }
      ],
      "stateMutability": "nonpayable",
      "type": "function"
    },
    {
      "inputs": [
        {
          "internalType": "uint256",
          "name": "messageIndex",
          "type": "uint256"
        }
      ],
      "name": "deleteMessage",
      "outputs": [],
      "stateMutability": "nonpayable",
      "type": "function"
    },
    {
      "inputs": [],
      "name": "deleteUserPubKey",
      "outputs": [],
      "stateMutability": "nonpayable",
      "type": "function"
    },
    {
      "inputs": [
        {
          "internalType": "address",
          "name": "userAddress",
          "type": "address"
        }
      ],
      "name": "deleteUserPubKeyAdmin",
      "outputs": [],
      "stateMutability": "nonpayable",
      "type": "function"
    },
    {
      "inputs": [
        {
          "internalType": "uint256",
          "name": "offset",
          "type": "uint256"
        },
        {
          "internalType": "uint256",
          "name": "limit",
          "type": "uint256"
        },
        {
          "internalType": "bool",
          "name": "includeRead",
          "type": "bool"
        },
        {
          "internalType": "bool",
          "name": "includeExpired",
          "type": "bool"
        },
        {
          "internalType": "uint8",
          "name": "categoryFilter",
          "type": "uint8"
        }
      ],
      "name": "getMyMessages",
      "outputs": [
        {
          "components": [
            {
              "internalType": "bytes32",
              "name": "ipfsHash",
              "type": "bytes32"
            },
            {
              "internalType": "address",
              "name": "sender",
              "type": "address"
            },
            {
              "internalType": "uint64",
              "name": "timestamp",
              "type": "uint64"
            },
            {
              "internalType": "uint64",
              "name": "expiresAt",
              "type": "uint64"
            },
            {
              "internalType": "uint8",
              "name": "status",
              "type": "uint8"
            },
            {
              "internalType": "uint8",
              "name": "category",
              "type": "uint8"
            },
            {
              "internalType": "bool",
              "name": "isDeleted",
              "type": "bool"
            }
          ],
          "internalType": "struct ISecretDot.Message[]",
          "name": "messages",
          "type": "tuple[]"
        },
        {
          "internalType": "uint256",
          "name": "total",
          "type": "uint256"
        }
      ],
      "stateMutability": "view",
      "type": "function"
    },
    {
      "inputs": [],
      "name": "getMyPubKey",
      "outputs": [
        {
          "internalType": "string",
          "name": "pubkey",
          "type": "string"
        }
      ],
      "stateMutability": "view",
      "type": "function"
    },
    {
      "inputs": [
        {
          "internalType": "address",
          "name": "userAddress",
          "type": "address"
        }
      ],
      "name": "getUserPubKey",
      "outputs": [
        {
          "internalType": "string",
          "name": "pubkey",
          "type": "string"
        }
      ],
      "stateMutability": "view",
      "type": "function"
    },
    {
      "inputs": [
        {
          "internalType": "address",
          "name": "userAddress",
          "type": "address"
        }
      ],
      "name": "hasRegisteredPubKey",
      "outputs": [
        {
          "internalType": "bool",
          "name": "",
          "type": "bool"
        }
      ],
      "stateMutability": "view",
      "type": "function"
    },
    {
      "inputs": [
        {
          "internalType": "uint256",
          "name": "messageIndex",
          "type": "uint256"
        }
      ],
      "name": "markMessageAsRead",
      "outputs": [],
      "stateMutability": "nonpayable",
      "type": "function"
    },
    {
      "inputs": [],
      "name": "owner",
      "outputs": [
        {
          "internalType": "address",
          "name": "",
          "type": "address"
        }
      ],
      "stateMutability": "view",
      "type": "function"
    },
    {
      "inputs": [],
      "name": "pause",
      "outputs": [],
      "stateMutability": "nonpayable",
      "type": "function"
    },
    {
      "inputs": [],
      "name": "paused",
      "outputs": [
        {
          "internalType": "bool",
          "name": "",
          "type": "bool"
        }
      ],
      "stateMutability": "view",
      "type": "function"
    },
    {
      "inputs": [
        {
          "internalType": "string",
          "name": "pubkey",
          "type": "string"
        }
      ],
      "name": "registerUserPubKey",
      "outputs": [],
      "stateMutability": "nonpayable",
      "type": "function"
    },
    {
      "inputs": [],
      "name": "renounceOwnership",
      "outputs": [],
      "stateMutability": "nonpayable",
      "type": "function"
    },
    {
      "inputs": [
        {
          "internalType": "address",
          "name": "recipient",
          "type": "address"
        },
        {
          "internalType": "string",
          "name": "ipfsHash",
          "type": "string"
        },
        {
          "internalType": "uint64",
          "name": "ttl",
          "type": "uint64"
        },
        {
          "internalType": "uint8",
          "name": "category",
          "type": "uint8"
        }
      ],
      "name": "sendMessage",
      "outputs": [],
      "stateMutability": "nonpayable",
      "type": "function"
    },
    {
      "inputs": [
        {
          "internalType": "address",
          "name": "sender",
          "type": "address"
        },
        {
          "internalType": "bool",
          "name": "isBlocked",
          "type": "bool"
        }
      ],
      "name": "setBlockedSender",
      "outputs": [],
      "stateMutability": "nonpayable",
      "type": "function"
    },
    {
      "inputs": [
        {
          "internalType": "bool",
          "name": "isEnabled",
          "type": "bool"
        }
      ],
      "name": "toggleMessageReceiving",
      "outputs": [],
      "stateMutability": "nonpayable",
      "type": "function"
    },
    {
      "inputs": [
        {
          "internalType": "address",
          "name": "newOwner",
          "type": "address"
        }
      ],
      "name": "transferOwnership",
      "outputs": [],
      "stateMutability": "nonpayable",
      "type": "function"
    },
    {
      "inputs": [],
      "name": "unpause",
      "outputs": [],
      "stateMutability": "nonpayable",
      "type": "function"
    }
  ],
  "bytecode": "0x60806040523480156200001157600080fd5b5033600073ffffffffffffffffffffffffffffffffffffffff168173ffffffffffffffffffffffffffffffffffffffff1603620000885760006040517f1e4fbdf70000000000000000000000000000000000000000000000000000000081526004016200007f9190620001b0565b60405180910390fd5b6200009981620000a760201b60201c565b5060018081905550620001cd565b60008060009054906101000a900473ffffffffffffffffffffffffffffffffffffffff169050816000806101000a81548173ffffffffffffffffffffffffffffffffffffffff021916908373ffffffffffffffffffffffffffffffffffffffff1602179055508173ffffffffffffffffffffffffffffffffffffffff168173ffffffffffffffffffffffffffffffffffffffff167f8be0079c531659141344cd1fd0a4f28419497f9722a3daafe3b4186f6b6457e060405160405180910390a35050565b600073ffffffffffffffffffffffffffffffffffffffff82169050919050565b600062000198826200016b565b9050919050565b620001aa816200018b565b82525050565b6000602082019050620001c760008301846200019f565b92915050565b6135e880620001dd6000396000f3fe608060405234801561001057600080fd5b50600436106101f05760003560e01c80638251931e1161010f578063b888690a116100a2578063d088db4011610071578063d088db401461050c578063d11d885b14610528578063dc9119f614610558578063f2fde38b14610588576101f0565b8063b888690a1461049c578063b95538a7146104b8578063c1f10127146104d4578063cb49b648146104f0576101f0565b8063a858cc17116100de578063a858cc171461043a578063ace446b314610444578063ad409c6f14610462578063ae08f9a814610480576101f0565b80638251931e146103d65780638456cb59146103f45780638da5cb5b146103fe57806397d340f51461041c576101f0565b80633f8c96ac116101875780635c975abb116101565780635c975abb1461037657806364dd47071461039457806370598d13146103b0578063715018a6146103cc576101f0565b80633f8c96ac146102de57806341b8b542146102fa578063479291881461032a5780635b37551e1461035a576101f0565b806330f664c8116101c357806330f664c81461027d57806337682398146102ae5780633b597013146102b85780633f4ba83a146102d4576101f0565b806302faf01b146101f55780630ccee584146102135780631cd3b4561461022f5780632a3077591461024d575b600080fd5b6101fd6105a4565b60405161020a9190612aa7565b60405180910390f35b61022d60048036038101906102289190612c23565b6105c4565b005b6102376105d8565b6040516102449190612c85565b60405180910390f35b61026760048036038101906102629190612ccc565b6105df565b6040516102749190612d08565b60405180910390f35b61029760048036038101906102929190612da7565b6105f1565b6040516102a5929190612e22565b60405180910390f35b6102b6610610565b005b6102d260048036038101906102cd9190612c23565b610632565b005b6102dc610646565b005b6102f860048036038101906102f39190612e52565b610658565b005b610314600480360381019061030f9190612ccc565b610664565b6040516103219190612efe565b60405180910390f35b610344600480360381019061033f9190612e52565b610676565b6040516103519190612c85565b60405180910390f35b610374600480360381019061036f9190612f20565b610875565b005b61037e61091e565b60405161038b9190612d08565b60405180910390f35b6103ae60048036038101906103a99190612ccc565b610935565b005b6103ca60048036038101906103c59190612e52565b610961565b005b6103d461097d565b005b6103de610991565b6040516103eb9190612efe565b60405180910390f35b6103fc6109a0565b005b6104066109b2565b6040516104139190612f5c565b60405180910390f35b6104246109db565b6040516104319190612c85565b60405180910390f35b6104426109e0565b005b61044c610a02565b6040516104599190612c85565b60405180910390f35b61046a610a07565b6040516104779190612efe565b60405180910390f35b61049a60048036038101906104959190612fa3565b610a16565b005b6104b660048036038101906104b19190612e52565b610a40565b005b6104d260048036038101906104cd9190612ccc565b610a5c565b005b6104ee60048036038101906104e99190612e52565b610a88565b005b61050a60048036038101906105059190613026565b610a94565b005b61052660048036038101906105219190613066565b610b2c565b005b610542600480360381019061053d9190612ccc565b610b55565b60405161054f9190612efe565b60405180910390f35b610572600480360381019061056d9190612ccc565b610b67565b60405161057f9190612d08565b60405180910390f35b6105a2600480360381019061059d9190612ccc565b610b79565b005b606060006105ba60006103e86001806000610bff565b5090508091505090565b6105cc6110e5565b6105d581611126565b50565b62278d0081565b60006105ea8261131d565b9050919050565b606060006106028787878787610bff565b915091509550959350505050565b6106186113d1565b6106206110e5565b610628611417565b6106306115c9565b565b61063a6110e5565b61064381611126565b50565b61064e6115d2565b610656611659565b565b610661816116bc565b50565b606061066f826118f9565b9050919050565b60006106806113d1565b6000600360003373ffffffffffffffffffffffffffffffffffffffff1673ffffffffffffffffffffffffffffffffffffffff168152602001908152602001600020905060008060005b8380549050811080156106db57508583105b156108615782806106eb906130f1565b93505083818154811061070157610700613139565b5b9060005260206000209060030201600201600a9054906101000a900460ff1661084e57600084828154811061073957610738613139565b5b906000526020600020906003020160020160009054906101000a900467ffffffffffffffff1667ffffffffffffffff16141580156107b8575083818154811061078557610784613139565b5b906000526020600020906003020160020160009054906101000a900467ffffffffffffffff1667ffffffffffffffff1642115b1561084d5760018482815481106107d2576107d1613139565b5b9060005260206000209060030201600201600a6101000a81548160ff0219169083151502179055508180610805906130f1565b925050803373ffffffffffffffffffffffffffffffffffffffff167f636bbf15c0522de78e45a4607aa8708931f7d74979e04f9522da0f86d70093ad60405160405180910390a35b5b8080610859906130f1565b9150506106c9565b508093505050506108706115c9565b919050565b8015600560003373ffffffffffffffffffffffffffffffffffffffff1673ffffffffffffffffffffffffffffffffffffffff16815260200190815260200160002060006101000a81548160ff0219169083151502179055503373ffffffffffffffffffffffffffffffffffffffff167fae6fca25ae275ddde2641ab6949eb4a3870ef705666d4e305882851a19525fa4826040516109139190612d08565b60405180910390a250565b6000600260009054906101000a900460ff16905090565b61093d6115d2565b6109456113d1565b61094d6110e5565b61095681611aa5565b61095e6115c9565b50565b6109696113d1565b61097281611c58565b61097a6115c9565b50565b6109856115d2565b61098f6000611dfe565b565b606061099b611ec2565b905090565b6109a86115d2565b6109b061206c565b565b60008060009054906101000a900473ffffffffffffffffffffffffffffffffffffffff16905090565b606481565b6109e86113d1565b6109f06110e5565b6109f8611417565b610a006115c9565b565b603c81565b6060610a11611ec2565b905090565b610a1e6113d1565b610a266110e5565b610a32848484846120cf565b610a3a6115c9565b50505050565b610a486113d1565b610a5181611c58565b610a596115c9565b50565b610a646115d2565b610a6c6113d1565b610a746110e5565b610a7d81611aa5565b610a856115c9565b50565b610a91816116bc565b50565b80600660003373ffffffffffffffffffffffffffffffffffffffff1673ffffffffffffffffffffffffffffffffffffffff16815260200190815260200160002060008473ffffffffffffffffffffffffffffffffffffffff1673ffffffffffffffffffffffffffffffffffffffff16815260200190815260200160002060006101000a81548160ff0219169083151502179055505050565b610b346113d1565b610b3c6110e5565b610b4982826000806120cf565b610b516115c9565b5050565b6060610b60826118f9565b9050919050565b6000610b728261131d565b9050919050565b610b816115d2565b600073ffffffffffffffffffffffffffffffffffffffff168173ffffffffffffffffffffffffffffffffffffffff1603610bf35760006040517f1e4fbdf7000000000000000000000000000000000000000000000000000000008152600401610bea9190612f5c565b60405180910390fd5b610bfc81611dfe565b50565b6060600080600360003373ffffffffffffffffffffffffffffffffffffffff1673ffffffffffffffffffffffffffffffffffffffff16815260200190815260200160002090506000805b8280549050811015610d86576000838281548110610c6a57610c69613139565b5b9060005260206000209060030201905080600201600a9054906101000a900460ff1615610c975750610d73565b88158015610cb9575060018160020160089054906101000a900460ff1660ff16145b15610cc45750610d73565b87158015610cf5575060008160020160009054906101000a900467ffffffffffffffff1667ffffffffffffffff1614155b8015610d2257508060020160009054906101000a900467ffffffffffffffff1667ffffffffffffffff1642115b15610d2d5750610d73565b60008760ff1614158015610d5857508660ff168160020160099054906101000a900460ff1660ff1614155b15610d635750610d73565b8280610d6e906130f1565b935050505b8080610d7e906130f1565b915050610c49565b506000898211610d97576000610dbd565b888a83610da49190613168565b10610daf5788610dbc565b8982610dbb9190613168565b5b5b905060008167ffffffffffffffff811115610ddb57610dda612af8565b5b604051908082528060200260200182016040528015610e1457816020015b610e01612844565b815260200190600190039081610df95790505b50905060008211156110d15760008060005b868054905081108015610e3857508483105b156110cd576000878281548110610e5257610e51613139565b5b9060005260206000209060030201905080600201600a9054906101000a900460ff1615610e7f57506110ba565b8c158015610ea1575060018160020160089054906101000a900460ff1660ff16145b15610eac57506110ba565b8b158015610edd575060008160020160009054906101000a900467ffffffffffffffff1667ffffffffffffffff1614155b8015610f0a57508060020160009054906101000a900467ffffffffffffffff1667ffffffffffffffff1642115b15610f1557506110ba565b60008b60ff1614158015610f4057508a60ff168160020160099054906101000a900460ff1660ff1614155b15610f4b57506110ba565b8e831015610f67578280610f5e906130f1565b935050506110ba565b806040518060e0016040529081600082015481526020016001820160009054906101000a900473ffffffffffffffffffffffffffffffffffffffff1673ffffffffffffffffffffffffffffffffffffffff1673ffffffffffffffffffffffffffffffffffffffff1681526020016001820160149054906101000a900467ffffffffffffffff1667ffffffffffffffff1667ffffffffffffffff1681526020016002820160009054906101000a900467ffffffffffffffff1667ffffffffffffffff1667ffffffffffffffff1681526020016002820160089054906101000a900460ff1660ff1660ff1681526020016002820160099054906101000a900460ff1660ff1660ff16815260200160028201600a9054906101000a900460ff16151515158152505085858151811061109f5761109e613139565b5b602002602001018190525083806110b5906130f1565b945050505b80806110c5906130f1565b915050610e26565b5050505b808395509550505050509550959350505050565b6110ed61091e565b15611124576040517fd93c066500000000000000000000000000000000000000000000000000000000815260040160405180910390fd5b565b600081510361116c57806040517ff1a6e1850000000000000000000000000000000000000000000000000000000081526004016111639190612efe565b60405180910390fd5b6002606461117a919061319c565b815111156111cf57805160026064611192919061319c565b6040517f36187ac70000000000000000000000000000000000000000000000000000000081526004016111c69291906131de565b60405180910390fd5b6000600860003373ffffffffffffffffffffffffffffffffffffffff1673ffffffffffffffffffffffffffffffffffffffff16815260200190815260200160002060006101000a81548160ff02191690831515021790555080600760003373ffffffffffffffffffffffffffffffffffffffff1673ffffffffffffffffffffffffffffffffffffffff16815260200190815260200160002090816112739190613413565b506000600560003373ffffffffffffffffffffffffffffffffffffffff1673ffffffffffffffffffffffffffffffffffffffff16815260200190815260200160002060006101000a81548160ff0219169083151502179055503373ffffffffffffffffffffffffffffffffffffffff167f17680f75b3bd6358c599e13674967a6d56ad9c0f29ab0df4850716fafde58cc0826040516113129190612efe565b60405180910390a250565b6000600860008373ffffffffffffffffffffffffffffffffffffffff1673ffffffffffffffffffffffffffffffffffffffff16815260200190815260200160002060009054906101000a900460ff161561137a57600090506113cc565b6000600760008473ffffffffffffffffffffffffffffffffffffffff1673ffffffffffffffffffffffffffffffffffffffff16815260200190815260200160002080546113c690613236565b90501190505b919050565b60026001540361140d576040517f3ee5aeb500000000000000000000000000000000000000000000000000000000815260040160405180910390fd5b6002600181905550565b6114203361131d565b61146157336040517fe6c01b2d0000000000000000000000000000000000000000000000000000000081526004016114589190612f5c565b60405180910390fd5b60405180602001604052806000815250600760003373ffffffffffffffffffffffffffffffffffffffff1673ffffffffffffffffffffffffffffffffffffffff16815260200190815260200160002090816114bc9190613413565b506001600860003373ffffffffffffffffffffffffffffffffffffffff1673ffffffffffffffffffffffffffffffffffffffff16815260200190815260200160002060006101000a81548160ff0219169083151502179055506001600560003373ffffffffffffffffffffffffffffffffffffffff1673ffffffffffffffffffffffffffffffffffffffff16815260200190815260200160002060006101000a81548160ff0219169083151502179055503373ffffffffffffffffffffffffffffffffffffffff163373ffffffffffffffffffffffffffffffffffffffff167fabdc0d7cb7250994aec27e094d8dacf9f4b1ff5c89f76310c956e5c2c3755a9a60405160405180910390a3565b60018081905550565b6115da612635565b73ffffffffffffffffffffffffffffffffffffffff166115f86109b2565b73ffffffffffffffffffffffffffffffffffffffff16146116575761161b612635565b6040517f118cdaa700000000000000000000000000000000000000000000000000000000815260040161164e9190612f5c565b60405180910390fd5b565b61166161263d565b6000600260006101000a81548160ff0219169083151502179055507f5db9ee0a495bf2e6ff9c91a7834c1ba4fdd244a5e8aa4e537bd38aeae4b073aa6116a5612635565b6040516116b29190612f5c565b60405180910390a1565b600360003373ffffffffffffffffffffffffffffffffffffffff1673ffffffffffffffffffffffffffffffffffffffff1681526020019081526020016000208054905081106117445733816040517ff380be2300000000000000000000000000000000000000000000000000000000815260040161173b9291906134e5565b60405180910390fd5b6000600360003373ffffffffffffffffffffffffffffffffffffffff1673ffffffffffffffffffffffffffffffffffffffff168152602001908152602001600020828154811061179757611796613139565b5b9060005260206000209060030201905080600201600a9054906101000a900460ff16156117fd5733826040517ff380be230000000000000000000000000000000000000000000000000000000081526004016117f49291906134e5565b60405180910390fd5b60008160020160009054906101000a900467ffffffffffffffff1667ffffffffffffffff161415801561185157508060020160009054906101000a900467ffffffffffffffff1667ffffffffffffffff1642115b1561189357816040517f99c8371000000000000000000000000000000000000000000000000000000000815260040161188a9190612c85565b60405180910390fd5b60018160020160086101000a81548160ff021916908360ff160217905550813373ffffffffffffffffffffffffffffffffffffffff167f70bc1f79ea6d45d633cbe8fe195f318568ca2b638b02a010b8034180f040270e60405160405180910390a35050565b6060600860008373ffffffffffffffffffffffffffffffffffffffff1673ffffffffffffffffffffffffffffffffffffffff16815260200190815260200160002060009054906101000a900460ff161561198a57816040517fe6c01b2d0000000000000000000000000000000000000000000000000000000081526004016119819190612f5c565b60405180910390fd5b6000600760008473ffffffffffffffffffffffffffffffffffffffff1673ffffffffffffffffffffffffffffffffffffffff16815260200190815260200160002080546119d690613236565b80601f0160208091040260200160405190810160405280929190818152602001828054611a0290613236565b8015611a4f5780601f10611a2457610100808354040283529160200191611a4f565b820191906000526020600020905b815481529060010190602001808311611a3257829003601f168201915b505050505090506000815103611a9c57826040517fe6c01b2d000000000000000000000000000000000000000000000000000000008152600401611a939190612f5c565b60405180910390fd5b80915050919050565b611aae8161131d565b611aef57806040517fe6c01b2d000000000000000000000000000000000000000000000000000000008152600401611ae69190612f5c565b60405180910390fd5b60405180602001604052806000815250600760008373ffffffffffffffffffffffffffffffffffffffff1673ffffffffffffffffffffffffffffffffffffffff1681526020019081526020016000209081611b4a9190613413565b506001600860008373ffffffffffffffffffffffffffffffffffffffff1673ffffffffffffffffffffffffffffffffffffffff16815260200190815260200160002060006101000a81548160ff0219169083151502179055506001600560008373ffffffffffffffffffffffffffffffffffffffff1673ffffffffffffffffffffffffffffffffffffffff16815260200190815260200160002060006101000a81548160ff0219169083151502179055503373ffffffffffffffffffffffffffffffffffffffff168173ffffffffffffffffffffffffffffffffffffffff167fabdc0d7cb7250994aec27e094d8dacf9f4b1ff5c89f76310c956e5c2c3755a9a60405160405180910390a350565b600360003373ffffffffffffffffffffffffffffffffffffffff1673ffffffffffffffffffffffffffffffffffffffff168152602001908152602001600020805490508110611ce05733816040517ff380be23000000000000000000000000000000000000000000000000000000008152600401611cd79291906134e5565b60405180910390fd5b6000600360003373ffffffffffffffffffffffffffffffffffffffff1673ffffffffffffffffffffffffffffffffffffffff1681526020019081526020016000208281548110611d3357611d32613139565b5b9060005260206000209060030201905080600201600a9054906101000a900460ff1615611d995733826040517ff380be23000000000000000000000000000000000000000000000000000000008152600401611d909291906134e5565b60405180910390fd5b600181600201600a6101000a81548160ff021916908315150217905550813373ffffffffffffffffffffffffffffffffffffffff167f636bbf15c0522de78e45a4607aa8708931f7d74979e04f9522da0f86d70093ad60405160405180910390a35050565b60008060009054906101000a900473ffffffffffffffffffffffffffffffffffffffff169050816000806101000a81548173ffffffffffffffffffffffffffffffffffffffff021916908373ffffffffffffffffffffffffffffffffffffffff1602179055508173ffffffffffffffffffffffffffffffffffffffff168173ffffffffffffffffffffffffffffffffffffffff167f8be0079c531659141344cd1fd0a4f28419497f9722a3daafe3b4186f6b6457e060405160405180910390a35050565b6060600860003373ffffffffffffffffffffffffffffffffffffffff1673ffffffffffffffffffffffffffffffffffffffff16815260200190815260200160002060009054906101000a900460ff1615611f5357336040517fe6c01b2d000000000000000000000000000000000000000000000000000000008152600401611f4a9190612f5c565b60405180910390fd5b6000600760003373ffffffffffffffffffffffffffffffffffffffff1673ffffffffffffffffffffffffffffffffffffffff1681526020019081526020016000208054611f9f90613236565b80601f0160208091040260200160405190810160405280929190818152602001828054611fcb90613236565b80156120185780601f10611fed57610100808354040283529160200191612018565b820191906000526020600020905b815481529060010190602001808311611ffb57829003601f168201915b50505050509050600081510361206557336040517fe6c01b2d00000000000000000000000000000000000000000000000000000000815260040161205c9190612f5c565b60405180910390fd5b8091505090565b6120746110e5565b6001600260006101000a81548160ff0219169083151502179055507f62e78cea01bee320cd4e420270b5ea74000d11b0c9f74754ebdbfc544b05a2586120b8612635565b6040516120c59190612f5c565b60405180910390a1565b6120d88461131d565b61211957836040517fe6c01b2d0000000000000000000000000000000000000000000000000000000081526004016121109190612f5c565b60405180910390fd5b600560008573ffffffffffffffffffffffffffffffffffffffff1673ffffffffffffffffffffffffffffffffffffffff16815260200190815260200160002060009054906101000a900460ff16156121a857836040517f99004fce00000000000000000000000000000000000000000000000000000000815260040161219f9190612f5c565b60405180910390fd5b600660008573ffffffffffffffffffffffffffffffffffffffff1673ffffffffffffffffffffffffffffffffffffffff16815260200190815260200160002060003373ffffffffffffffffffffffffffffffffffffffff1673ffffffffffffffffffffffffffffffffffffffff16815260200190815260200160002060009054906101000a900460ff16156122765733846040517fd83afbe700000000000000000000000000000000000000000000000000000000815260040161226d92919061350e565b60405180910390fd5b603c600460003373ffffffffffffffffffffffffffffffffffffffff1673ffffffffffffffffffffffffffffffffffffffff168152602001908152602001600020546122c29190613537565b4210156123535733603c600460003373ffffffffffffffffffffffffffffffffffffffff1673ffffffffffffffffffffffffffffffffffffffff168152602001908152602001600020546123169190613537565b6040517fc3ae51f200000000000000000000000000000000000000000000000000000000815260040161234a9291906134e5565b60405180910390fd5b600061235e8461267d565b90506000808467ffffffffffffffff161461238e578367ffffffffffffffff16426123899190613537565b61239e565b62278d004261239d9190613537565b5b9050600360008773ffffffffffffffffffffffffffffffffffffffff1673ffffffffffffffffffffffffffffffffffffffff1681526020019081526020016000206040518060e001604052808481526020013373ffffffffffffffffffffffffffffffffffffffff1681526020014267ffffffffffffffff1681526020018367ffffffffffffffff168152602001600060ff1681526020018560ff1681526020016000151581525090806001815401808255809150506001900390600052602060002090600302016000909190919091506000820151816000015560208201518160010160006101000a81548173ffffffffffffffffffffffffffffffffffffffff021916908373ffffffffffffffffffffffffffffffffffffffff16021790555060408201518160010160146101000a81548167ffffffffffffffff021916908367ffffffffffffffff16021790555060608201518160020160006101000a81548167ffffffffffffffff021916908367ffffffffffffffff16021790555060808201518160020160086101000a81548160ff021916908360ff16021790555060a08201518160020160096101000a81548160ff021916908360ff16021790555060c082015181600201600a6101000a81548160ff021916908315150217905550505042600460003373ffffffffffffffffffffffffffffffffffffffff1673ffffffffffffffffffffffffffffffffffffffff168152602001908152602001600020819055508573ffffffffffffffffffffffffffffffffffffffff163373ffffffffffffffffffffffffffffffffffffffff167f4ac8868417cb696399fc86eefa527d268b76b4bbe883b6e1a49c24f6a818415d8484604051612625929190613589565b60405180910390a3505050505050565b600033905090565b61264561091e565b61267b576040517f8dfc202b00000000000000000000000000000000000000000000000000000000815260040160405180910390fd5b565b6000808251036126c457816040517fdb5bc9ab0000000000000000000000000000000000000000000000000000000081526004016126bb9190612efe565b60405180910390fd5b60648251111561270f57815160646040517f36187ac70000000000000000000000000000000000000000000000000000000081526004016127069291906131de565b60405180910390fd5b6000829050600281511015801561278657507f51000000000000000000000000000000000000000000000000000000000000008160008151811061275657612755613139565b5b602001015160f81c60f81b7effffffffffffffffffffffffffffffffffffffffffffffffffffffffffffff191614155b80156127f257507f6d00000000000000000000000000000000000000000000000000000000000000816001815181106127c2576127c1613139565b5b602001015160f81c60f81b7effffffffffffffffffffffffffffffffffffffffffffffffffffffffffffff191614155b1561283457826040517fdb5bc9ab00000000000000000000000000000000000000000000000000000000815260040161282b9190612efe565b60405180910390fd5b8280519060200120915050919050565b6040518060e0016040528060008019168152602001600073ffffffffffffffffffffffffffffffffffffffff168152602001600067ffffffffffffffff168152602001600067ffffffffffffffff168152602001600060ff168152602001600060ff1681526020016000151581525090565b600081519050919050565b600082825260208201905092915050565b6000819050602082019050919050565b6000819050919050565b6128f5816128e2565b82525050565b600073ffffffffffffffffffffffffffffffffffffffff82169050919050565b6000612926826128fb565b9050919050565b6129368161291b565b82525050565b600067ffffffffffffffff82169050919050565b6129598161293c565b82525050565b600060ff82169050919050565b6129758161295f565b82525050565b60008115159050919050565b6129908161297b565b82525050565b60e0820160008201516129ac60008501826128ec565b5060208201516129bf602085018261292d565b5060408201516129d26040850182612950565b5060608201516129e56060850182612950565b5060808201516129f8608085018261296c565b5060a0820151612a0b60a085018261296c565b5060c0820151612a1e60c0850182612987565b50505050565b6000612a308383612996565b60e08301905092915050565b6000602082019050919050565b6000612a54826128b6565b612a5e81856128c1565b9350612a69836128d2565b8060005b83811015612a9a578151612a818882612a24565b9750612a8c83612a3c565b925050600181019050612a6d565b5085935050505092915050565b60006020820190508181036000830152612ac18184612a49565b905092915050565b6000604051905090565b600080fd5b600080fd5b600080fd5b600080fd5b6000601f19601f8301169050919050565b7f4e487b7100000000000000000000000000000000000000000000000000000000600052604160045260246000fd5b612b3082612ae7565b810181811067ffffffffffffffff82111715612b4f57612b4e612af8565b5b80604052505050565b6000612b62612ac9565b9050612b6e8282612b27565b919050565b600067ffffffffffffffff821115612b8e57612b8d612af8565b5b612b9782612ae7565b9050602081019050919050565b82818337600083830152505050565b6000612bc6612bc184612b73565b612b58565b905082815260208101848484011115612be257612be1612ae2565b5b612bed848285612ba4565b509392505050565b600082601f830112612c0a57612c09612add565b5b8135612c1a848260208601612bb3565b91505092915050565b600060208284031215612c3957612c38612ad3565b5b600082013567ffffffffffffffff811115612c5757612c56612ad8565b5b612c6384828501612bf5565b91505092915050565b6000819050919050565b612c7f81612c6c565b82525050565b6000602082019050612c9a6000830184612c76565b92915050565b612ca98161291b565b8114612cb457600080fd5b50565b600081359050612cc681612ca0565b92915050565b600060208284031215612ce257612ce1612ad3565b5b6000612cf084828501612cb7565b91505092915050565b612d028161297b565b82525050565b6000602082019050612d1d6000830184612cf9565b92915050565b612d2c81612c6c565b8114612d3757600080fd5b50565b600081359050612d4981612d23565b92915050565b612d588161297b565b8114612d6357600080fd5b50565b600081359050612d7581612d4f565b92915050565b612d848161295f565b8114612d8f57600080fd5b50565b600081359050612da181612d7b565b92915050565b600080600080600060a08688031215612dc357612dc2612ad3565b5b6000612dd188828901612d3a565b9550506020612de288828901612d3a565b9450506040612df388828901612d66565b9350506060612e0488828901612d66565b9250506080612e1588828901612d92565b9150509295509295909350565b60006040820190508181036000830152612e3c8185612a49565b9050612e4b6020830184612c76565b9392505050565b600060208284031215612e6857612e67612ad3565b5b6000612e7684828501612d3a565b91505092915050565b600081519050919050565b600082825260208201905092915050565b60005b83811015612eb9578082015181840152602081019050612e9e565b60008484015250505050565b6000612ed082612e7f565b612eda8185612e8a565b9350612eea818560208601612e9b565b612ef381612ae7565b840191505092915050565b60006020820190508181036000830152612f188184612ec5565b905092915050565b600060208284031215612f3657612f35612ad3565b5b6000612f4484828501612d66565b91505092915050565b612f568161291b565b82525050565b6000602082019050612f716000830184612f4d565b92915050565b612f808161293c565b8114612f8b57600080fd5b50565b600081359050612f9d81612f77565b92915050565b60008060008060808587031215612fbd57612fbc612ad3565b5b6000612fcb87828801612cb7565b945050602085013567ffffffffffffffff811115612fec57612feb612ad8565b5b612ff887828801612bf5565b935050604061300987828801612f8e565b925050606061301a87828801612d92565b91505092959194509250565b6000806040838503121561303d5761303c612ad3565b5b600061304b85828601612cb7565b925050602061305c85828601612d66565b9150509250929050565b6000806040838503121561307d5761307c612ad3565b5b600061308b85828601612cb7565b925050602083013567ffffffffffffffff8111156130ac576130ab612ad8565b5b6130b885828601612bf5565b9150509250929050565b7f4e487b7100000000000000000000000000000000000000000000000000000000600052601160045260246000fd5b60006130fc82612c6c565b91507fffffffffffffffffffffffffffffffffffffffffffffffffffffffffffffffff820361312e5761312d6130c2565b5b600182019050919050565b7f4e487b7100000000000000000000000000000000000000000000000000000000600052603260045260246000fd5b600061317382612c6c565b915061317e83612c6c565b9250828203905081811115613196576131956130c2565b5b92915050565b60006131a782612c6c565b91506131b283612c6c565b92508282026131c081612c6c565b915082820484148315176131d7576131d66130c2565b5b5092915050565b60006040820190506131f36000830185612c76565b6132006020830184612c76565b9392505050565b7f4e487b7100000000000000000000000000000000000000000000000000000000600052602260045260246000fd5b6000600282049050600182168061324e57607f821691505b60208210810361326157613260613207565b5b50919050565b60008190508160005260206000209050919050565b60006020601f8301049050919050565b600082821b905092915050565b6000600883026132c97fffffffffffffffffffffffffffffffffffffffffffffffffffffffffffffffff8261328c565b6132d3868361328c565b95508019841693508086168417925050509392505050565b6000819050919050565b600061331061330b61330684612c6c565b6132eb565b612c6c565b9050919050565b6000819050919050565b61332a836132f5565b61333e61333682613317565b848454613299565b825550505050565b600090565b613353613346565b61335e818484613321565b505050565b5b818110156133825761337760008261334b565b600181019050613364565b5050565b601f8211156133c75761339881613267565b6133a18461327c565b810160208510156133b0578190505b6133c46133bc8561327c565b830182613363565b50505b505050565b600082821c905092915050565b60006133ea600019846008026133cc565b1980831691505092915050565b600061340383836133d9565b9150826002028217905092915050565b61341c82612e7f565b67ffffffffffffffff81111561343557613434612af8565b5b61343f8254613236565b61344a828285613386565b600060209050601f83116001811461347d576000841561346b578287015190505b61347585826133f7565b8655506134dd565b601f19841661348b86613267565b60005b828110156134b35784890151825560018201915060208501945060208101905061348e565b868310156134d057848901516134cc601f8916826133d9565b8355505b6001600288020188555050505b505050505050565b60006040820190506134fa6000830185612f4d565b6135076020830184612c76565b9392505050565b60006040820190506135236000830185612f4d565b6135306020830184612f4d565b9392505050565b600061354282612c6c565b915061354d83612c6c565b9250828201905080821115613565576135646130c2565b5b92915050565b613574816128e2565b82525050565b6135838161293c565b82525050565b600060408201905061359e600083018561356b565b6135ab602083018461357a565b939250505056fea264697066735822122074bd74ad2647feb15e7e0e74bef4014b5e05d3c6ee391bc47ee1a65e73e718c564736f6c63430008140033",
  "linkReferences": {},
  "deployedLinkReferences": {}
}