{
  "_format": "hh-sol-artifact-1",
  "contractName": "SecretDot",
  "sourceName": "contracts/SecretDot.sol",
  "abi": [
    {
      "inputs": [],
      "stateMutability": "nonpayable",
      "type": "constructor"
    },
    {
      "inputs": [
        {
          "internalType": "address",
          "name": "owner",
          "type": "address"
        }
      ],
      "name": "OwnableInvalidOwner",
      "type": "error"
    },
    {
      "inputs": [
        {
          "internalType": "address",
          "name": "account",
          "type": "address"
        }
      ],
      "name": "OwnableUnauthorizedAccount",
      "type": "error"
    },
    {
      "inputs": [
        {
          "internalType": "address",
          "name": "user",
          "type": "address"
        }
      ],
      "name": "PubKeyNotFoundError",
      "type": "error"
    },
    {
      "inputs": [
        {
          "internalType": "address",
          "name": "caller",
          "type": "address"
        },
        {
          "internalType": "address",
          "name": "target",
          "type": "address"
        }
      ],
      "name": "UnauthorizedAccessError",
      "type": "error"
    },
    {
      "anonymous": false,
      "inputs": [
        {
          "indexed": true,
          "internalType": "address",
          "name": "sender",
          "type": "address"
        },
        {
          "indexed": true,
          "internalType": "address",
          "name": "recipient",
          "type": "address"
        },
        {
          "indexed": false,
          "internalType": "string",
          "name": "ipfsHash",
          "type": "string"
        }
      ],
      "name": "MessageSent",
      "type": "event"
    },
    {
      "anonymous": false,
      "inputs": [
        {
          "indexed": true,
          "internalType": "address",
          "name": "previousOwner",
          "type": "address"
        },
        {
          "indexed": true,
          "internalType": "address",
          "name": "newOwner",
          "type": "address"
        }
      ],
      "name": "OwnershipTransferred",
      "type": "event"
    },
    {
      "anonymous": false,
      "inputs": [
        {
          "indexed": true,
          "internalType": "address",
          "name": "user",
          "type": "address"
        },
        {
          "indexed": true,
          "internalType": "address",
          "name": "deletedBy",
          "type": "address"
        }
      ],
      "name": "PubKeyDeleted",
      "type": "event"
    },
    {
      "anonymous": false,
      "inputs": [
        {
          "indexed": true,
          "internalType": "address",
          "name": "user",
          "type": "address"
        },
        {
          "indexed": false,
          "internalType": "string",
          "name": "pubKey",
          "type": "string"
        }
      ],
      "name": "PubKeyRegistered",
      "type": "event"
    },
    {
      "inputs": [],
      "name": "DeleteUserPubKey",
      "outputs": [],
      "stateMutability": "nonpayable",
      "type": "function"
    },
    {
      "inputs": [
        {
          "internalType": "address",
          "name": "userAddress",
          "type": "address"
        }
      ],
      "name": "DeleteUserPubKeyAdmin",
      "outputs": [],
      "stateMutability": "nonpayable",
      "type": "function"
    },
    {
      "inputs": [],
      "name": "GetMyMessages",
      "outputs": [
        {
          "components": [
            {
              "internalType": "string",
              "name": "ipfsHash",
              "type": "string"
            },
            {
              "internalType": "address",
              "name": "sender",
              "type": "address"
            },
            {
              "internalType": "uint256",
              "name": "timestamp",
              "type": "uint256"
            }
          ],
          "internalType": "struct SecretDot.Message[]",
          "name": "",
          "type": "tuple[]"
        }
      ],
      "stateMutability": "view",
      "type": "function"
    },
    {
      "inputs": [],
      "name": "GetMyPubKey",
      "outputs": [
        {
          "internalType": "string",
          "name": "pubkey",
          "type": "string"
        }
      ],
      "stateMutability": "view",
      "type": "function"
    },
    {
      "inputs": [
        {
          "internalType": "address",
          "name": "userAddress",
          "type": "address"
        }
      ],
      "name": "GetUserPubKey",
      "outputs": [
        {
          "internalType": "string",
          "name": "pubkey",
          "type": "string"
        }
      ],
      "stateMutability": "view",
      "type": "function"
    },
    {
      "inputs": [
        {
          "internalType": "address",
          "name": "userAddress",
          "type": "address"
        }
      ],
      "name": "HasRegisteredPubKey",
      "outputs": [
        {
          "internalType": "bool",
          "name": "",
          "type": "bool"
        }
      ],
      "stateMutability": "view",
      "type": "function"
    },
    {
      "inputs": [
        {
          "internalType": "string",
          "name": "pubkey",
          "type": "string"
        }
      ],
      "name": "RegisterUserPubKey",
      "outputs": [],
      "stateMutability": "nonpayable",
      "type": "function"
    },
    {
      "inputs": [
        {
          "internalType": "address",
          "name": "recipient",
          "type": "address"
        },
        {
          "internalType": "string",
          "name": "ipfsHash",
          "type": "string"
        }
      ],
      "name": "SendMessage",
      "outputs": [],
      "stateMutability": "nonpayable",
      "type": "function"
    },
    {
      "inputs": [],
      "name": "owner",
      "outputs": [
        {
          "internalType": "address",
          "name": "",
          "type": "address"
        }
      ],
      "stateMutability": "view",
      "type": "function"
    },
    {
      "inputs": [],
      "name": "renounceOwnership",
      "outputs": [],
      "stateMutability": "nonpayable",
      "type": "function"
    },
    {
      "inputs": [
        {
          "internalType": "address",
          "name": "newOwner",
          "type": "address"
        }
      ],
      "name": "transferOwnership",
      "outputs": [],
      "stateMutability": "nonpayable",
      "type": "function"
    }
  ],
  "bytecode": "0x60806040523480156200001157600080fd5b5033600073ffffffffffffffffffffffffffffffffffffffff168173ffffffffffffffffffffffffffffffffffffffff1603620000885760006040517f1e4fbdf70000000000000000000000000000000000000000000000000000000081526004016200007f9190620001a9565b60405180910390fd5b6200009981620000a060201b60201c565b50620001c6565b60008060009054906101000a900473ffffffffffffffffffffffffffffffffffffffff169050816000806101000a81548173ffffffffffffffffffffffffffffffffffffffff021916908373ffffffffffffffffffffffffffffffffffffffff1602179055508173ffffffffffffffffffffffffffffffffffffffff168173ffffffffffffffffffffffffffffffffffffffff167f8be0079c531659141344cd1fd0a4f28419497f9722a3daafe3b4186f6b6457e060405160405180910390a35050565b600073ffffffffffffffffffffffffffffffffffffffff82169050919050565b6000620001918262000164565b9050919050565b620001a38162000184565b82525050565b6000602082019050620001c0600083018462000198565b92915050565b6118a180620001d66000396000f3fe608060405234801561001057600080fd5b50600436106100a95760003560e01c80638251931e116100715780638251931e1461012c5780638da5cb5b1461014a578063b95538a714610168578063d088db4014610184578063d11d885b146101a0578063f2fde38b146101d0576100a9565b806302faf01b146100ae5780630ccee584146100cc5780632a307759146100e85780633768239814610118578063715018a614610122575b600080fd5b6100b66101ec565b6040516100c39190611114565b60405180910390f35b6100e660048036038101906100e1919061127f565b61037a565b005b61010260048036038101906100fd91906112f4565b61045c565b60405161010f919061133c565b60405180910390f35b6101206104b3565b005b61012a61066d565b005b610134610681565b60405161014191906113a1565b60405180910390f35b61015261079c565b60405161015f91906113d2565b60405180910390f35b610182600480360381019061017d91906112f4565b6107c5565b005b61019e600480360381019061019991906113ed565b610988565b005b6101ba60048036038101906101b591906112f4565b610bc5565b6040516101c791906113a1565b60405180910390f35b6101ea60048036038101906101e591906112f4565b610ce2565b005b6060600160003373ffffffffffffffffffffffffffffffffffffffff1673ffffffffffffffffffffffffffffffffffffffff168152602001908152602001600020805480602002602001604051908101604052809291908181526020016000905b82821015610371578382906000526020600020906003020160405180606001604052908160008201805461028090611478565b80601f01602080910402602001604051908101604052809291908181526020018280546102ac90611478565b80156102f95780601f106102ce576101008083540402835291602001916102f9565b820191906000526020600020905b8154815290600101906020018083116102dc57829003601f168201915b505050505081526020016001820160009054906101000a900473ffffffffffffffffffffffffffffffffffffffff1673ffffffffffffffffffffffffffffffffffffffff1673ffffffffffffffffffffffffffffffffffffffff1681526020016002820154815250508152602001906001019061024d565b50505050905090565b60008151116103be576040517f08c379a00000000000000000000000000000000000000000000000000000000081526004016103b5906114f5565b60405180910390fd5b80600260003373ffffffffffffffffffffffffffffffffffffffff1673ffffffffffffffffffffffffffffffffffffffff168152602001908152602001600020908161040a91906116c1565b503373ffffffffffffffffffffffffffffffffffffffff167f17680f75b3bd6358c599e13674967a6d56ad9c0f29ab0df4850716fafde58cc08260405161045191906113a1565b60405180910390a250565b600080600260008473ffffffffffffffffffffffffffffffffffffffff1673ffffffffffffffffffffffffffffffffffffffff16815260200190815260200160002080546104a990611478565b9050119050919050565b6000600260003373ffffffffffffffffffffffffffffffffffffffff1673ffffffffffffffffffffffffffffffffffffffff16815260200190815260200160002080546104ff90611478565b80601f016020809104026020016040519081016040528092919081815260200182805461052b90611478565b80156105785780601f1061054d57610100808354040283529160200191610578565b820191906000526020600020905b81548152906001019060200180831161055b57829003601f168201915b5050505050905060008151036105c557336040517fe6c01b2d0000000000000000000000000000000000000000000000000000000081526004016105bc91906113d2565b60405180910390fd5b600260003373ffffffffffffffffffffffffffffffffffffffff1673ffffffffffffffffffffffffffffffffffffffff16815260200190815260200160002060006106109190610ebb565b3373ffffffffffffffffffffffffffffffffffffffff163373ffffffffffffffffffffffffffffffffffffffff167fabdc0d7cb7250994aec27e094d8dacf9f4b1ff5c89f76310c956e5c2c3755a9a60405160405180910390a350565b610675610d68565b61067f6000610def565b565b60606000600260003373ffffffffffffffffffffffffffffffffffffffff1673ffffffffffffffffffffffffffffffffffffffff16815260200190815260200160002080546106cf90611478565b80601f01602080910402602001604051908101604052809291908181526020018280546106fb90611478565b80156107485780601f1061071d57610100808354040283529160200191610748565b820191906000526020600020905b81548152906001019060200180831161072b57829003601f168201915b50505050509050600081510361079557336040517fe6c01b2d00000000000000000000000000000000000000000000000000000000815260040161078c91906113d2565b60405180910390fd5b8091505090565b60008060009054906101000a900473ffffffffffffffffffffffffffffffffffffffff16905090565b6107cd610d68565b6000600260008373ffffffffffffffffffffffffffffffffffffffff1673ffffffffffffffffffffffffffffffffffffffff168152602001908152602001600020805461081990611478565b80601f016020809104026020016040519081016040528092919081815260200182805461084590611478565b80156108925780601f1061086757610100808354040283529160200191610892565b820191906000526020600020905b81548152906001019060200180831161087557829003601f168201915b5050505050905060008151036108df57816040517fe6c01b2d0000000000000000000000000000000000000000000000000000000081526004016108d691906113d2565b60405180910390fd5b600260008373ffffffffffffffffffffffffffffffffffffffff1673ffffffffffffffffffffffffffffffffffffffff168152602001908152602001600020600061092a9190610ebb565b3373ffffffffffffffffffffffffffffffffffffffff168273ffffffffffffffffffffffffffffffffffffffff167fabdc0d7cb7250994aec27e094d8dacf9f4b1ff5c89f76310c956e5c2c3755a9a60405160405180910390a35050565b6000600260008473ffffffffffffffffffffffffffffffffffffffff1673ffffffffffffffffffffffffffffffffffffffff16815260200190815260200160002080546109d490611478565b905011610a16576040517f08c379a0000000000000000000000000000000000000000000000000000000008152600401610a0d906117df565b60405180910390fd5b6000815111610a5a576040517f08c379a0000000000000000000000000000000000000000000000000000000008152600401610a519061184b565b60405180910390fd5b600160008373ffffffffffffffffffffffffffffffffffffffff1673ffffffffffffffffffffffffffffffffffffffff16815260200190815260200160002060405180606001604052808381526020013373ffffffffffffffffffffffffffffffffffffffff1681526020014281525090806001815401808255809150506001900390600052602060002090600302016000909190919091506000820151816000019081610b0891906116c1565b5060208201518160010160006101000a81548173ffffffffffffffffffffffffffffffffffffffff021916908373ffffffffffffffffffffffffffffffffffffffff1602179055506040820151816002015550508173ffffffffffffffffffffffffffffffffffffffff163373ffffffffffffffffffffffffffffffffffffffff167fe2cf7446a11cbcd14cd99ea3a1bb77fb7653a64f4064d660140b5100d001e13c83604051610bb991906113a1565b60405180910390a35050565b60606000600260008473ffffffffffffffffffffffffffffffffffffffff1673ffffffffffffffffffffffffffffffffffffffff1681526020019081526020016000208054610c1390611478565b80601f0160208091040260200160405190810160405280929190818152602001828054610c3f90611478565b8015610c8c5780601f10610c6157610100808354040283529160200191610c8c565b820191906000526020600020905b815481529060010190602001808311610c6f57829003601f168201915b505050505090506000815103610cd957826040517fe6c01b2d000000000000000000000000000000000000000000000000000000008152600401610cd091906113d2565b60405180910390fd5b80915050919050565b610cea610d68565b600073ffffffffffffffffffffffffffffffffffffffff168173ffffffffffffffffffffffffffffffffffffffff1603610d5c5760006040517f1e4fbdf7000000000000000000000000000000000000000000000000000000008152600401610d5391906113d2565b60405180910390fd5b610d6581610def565b50565b610d70610eb3565b73ffffffffffffffffffffffffffffffffffffffff16610d8e61079c565b73ffffffffffffffffffffffffffffffffffffffff1614610ded57610db1610eb3565b6040517f118cdaa7000000000000000000000000000000000000000000000000000000008152600401610de491906113d2565b60405180910390fd5b565b60008060009054906101000a900473ffffffffffffffffffffffffffffffffffffffff169050816000806101000a81548173ffffffffffffffffffffffffffffffffffffffff021916908373ffffffffffffffffffffffffffffffffffffffff1602179055508173ffffffffffffffffffffffffffffffffffffffff168173ffffffffffffffffffffffffffffffffffffffff167f8be0079c531659141344cd1fd0a4f28419497f9722a3daafe3b4186f6b6457e060405160405180910390a35050565b600033905090565b508054610ec790611478565b6000825580601f10610ed95750610ef8565b601f016020900490600052602060002090810190610ef79190610efb565b5b50565b5b80821115610f14576000816000905550600101610efc565b5090565b600081519050919050565b600082825260208201905092915050565b6000819050602082019050919050565b600081519050919050565b600082825260208201905092915050565b60005b83811015610f7e578082015181840152602081019050610f63565b60008484015250505050565b6000601f19601f8301169050919050565b6000610fa682610f44565b610fb08185610f4f565b9350610fc0818560208601610f60565b610fc981610f8a565b840191505092915050565b600073ffffffffffffffffffffffffffffffffffffffff82169050919050565b6000610fff82610fd4565b9050919050565b61100f81610ff4565b82525050565b6000819050919050565b61102881611015565b82525050565b6000606083016000830151848203600086015261104b8282610f9b565b91505060208301516110606020860182611006565b506040830151611073604086018261101f565b508091505092915050565b600061108a838361102e565b905092915050565b6000602082019050919050565b60006110aa82610f18565b6110b48185610f23565b9350836020820285016110c685610f34565b8060005b8581101561110257848403895281516110e3858261107e565b94506110ee83611092565b925060208a019950506001810190506110ca565b50829750879550505050505092915050565b6000602082019050818103600083015261112e818461109f565b905092915050565b6000604051905090565b600080fd5b600080fd5b600080fd5b600080fd5b7f4e487b7100000000000000000000000000000000000000000000000000000000600052604160045260246000fd5b61118c82610f8a565b810181811067ffffffffffffffff821117156111ab576111aa611154565b5b80604052505050565b60006111be611136565b90506111ca8282611183565b919050565b600067ffffffffffffffff8211156111ea576111e9611154565b5b6111f382610f8a565b9050602081019050919050565b82818337600083830152505050565b600061122261121d846111cf565b6111b4565b90508281526020810184848401111561123e5761123d61114f565b5b611249848285611200565b509392505050565b600082601f8301126112665761126561114a565b5b813561127684826020860161120f565b91505092915050565b60006020828403121561129557611294611140565b5b600082013567ffffffffffffffff8111156112b3576112b2611145565b5b6112bf84828501611251565b91505092915050565b6112d181610ff4565b81146112dc57600080fd5b50565b6000813590506112ee816112c8565b92915050565b60006020828403121561130a57611309611140565b5b6000611318848285016112df565b91505092915050565b60008115159050919050565b61133681611321565b82525050565b6000602082019050611351600083018461132d565b92915050565b600082825260208201905092915050565b600061137382610f44565b61137d8185611357565b935061138d818560208601610f60565b61139681610f8a565b840191505092915050565b600060208201905081810360008301526113bb8184611368565b905092915050565b6113cc81610ff4565b82525050565b60006020820190506113e760008301846113c3565b92915050565b6000806040838503121561140457611403611140565b5b6000611412858286016112df565b925050602083013567ffffffffffffffff81111561143357611432611145565b5b61143f85828601611251565b9150509250929050565b7f4e487b7100000000000000000000000000000000000000000000000000000000600052602260045260246000fd5b6000600282049050600182168061149057607f821691505b6020821081036114a3576114a2611449565b5b50919050565b7f5075626c6963206b65792063616e6e6f7420626520656d707479000000000000600082015250565b60006114df601a83611357565b91506114ea826114a9565b602082019050919050565b6000602082019050818103600083015261150e816114d2565b9050919050565b60008190508160005260206000209050919050565b60006020601f8301049050919050565b600082821b905092915050565b6000600883026115777fffffffffffffffffffffffffffffffffffffffffffffffffffffffffffffffff8261153a565b611581868361153a565b95508019841693508086168417925050509392505050565b6000819050919050565b60006115be6115b96115b484611015565b611599565b611015565b9050919050565b6000819050919050565b6115d8836115a3565b6115ec6115e4826115c5565b848454611547565b825550505050565b600090565b6116016115f4565b61160c8184846115cf565b505050565b5b81811015611630576116256000826115f9565b600181019050611612565b5050565b601f8211156116755761164681611515565b61164f8461152a565b8101602085101561165e578190505b61167261166a8561152a565b830182611611565b50505b505050565b600082821c905092915050565b60006116986000198460080261167a565b1980831691505092915050565b60006116b18383611687565b9150826002028217905092915050565b6116ca82610f44565b67ffffffffffffffff8111156116e3576116e2611154565b5b6116ed8254611478565b6116f8828285611634565b600060209050601f83116001811461172b5760008415611719578287015190505b61172385826116a5565b86555061178b565b601f19841661173986611515565b60005b828110156117615784890151825560018201915060208501945060208101905061173c565b8683101561177e578489015161177a601f891682611687565b8355505b6001600288020188555050505b505050505050565b7f526563697069656e74206e6f7420726567697374657265640000000000000000600082015250565b60006117c9601883611357565b91506117d482611793565b602082019050919050565b600060208201905081810360008301526117f8816117bc565b9050919050565b7f4950465320686173682063616e6e6f7420626520656d70747900000000000000600082015250565b6000611835601983611357565b9150611840826117ff565b602082019050919050565b6000602082019050818103600083015261186481611828565b905091905056fea26469706673582212206976854a3b0e1af1c9879711de611f51dfcfa8673550f4da6196653ef47c047e64736f6c63430008140033",
  "linkReferences": {},
  "deployedLinkReferences": {}
}